{
  "_format": "hh-sol-artifact-1",
  "contractName": "DelegateCallGameStorage",
  "sourceName": "contracts/Game.sol",
  "abi": [
    {
      "inputs": [
        {
          "components": [
            {
              "internalType": "string",
              "name": "name",
              "type": "string"
            },
            {
              "internalType": "address",
              "name": "wallet",
              "type": "address"
            },
            {
              "internalType": "uint256",
              "name": "bet",
              "type": "uint256"
            },
            {
              "internalType": "bool",
              "name": "isPaid",
              "type": "bool"
            },
            {
              "internalType": "bool",
              "name": "isPaidOut",
              "type": "bool"
            },
            {
              "internalType": "uint256",
              "name": "result",
              "type": "uint256"
            }
          ],
          "internalType": "struct GameBase.Player[]",
          "name": "_playerList",
          "type": "tuple[]"
        },
        {
          "internalType": "address",
          "name": "logicAddr",
          "type": "address"
        },
        {
          "internalType": "uint256",
          "name": "_bettingMaxTime",
          "type": "uint256"
        },
        {
          "internalType": "uint256",
          "name": "_gameMaxTime",
          "type": "uint256"
        }
      ],
      "stateMutability": "nonpayable",
      "type": "constructor"
    },
    {
      "anonymous": false,
      "inputs": [],
      "name": "BettingFinished",
      "type": "event"
    },
    {
      "anonymous": false,
      "inputs": [
        {
          "indexed": false,
          "internalType": "uint256",
          "name": "timestamp",
          "type": "uint256"
        }
      ],
      "name": "GameFinalized",
      "type": "event"
    },
    {
      "anonymous": false,
      "inputs": [
        {
          "indexed": true,
          "internalType": "address",
          "name": "wallet",
          "type": "address"
        },
        {
          "indexed": false,
          "internalType": "string",
          "name": "name",
          "type": "string"
        },
        {
          "indexed": false,
          "internalType": "uint256",
          "name": "bet",
          "type": "uint256"
        }
      ],
      "name": "LogBet",
      "type": "event"
    },
    {
      "inputs": [],
      "name": "abortGame",
      "outputs": [],
      "stateMutability": "nonpayable",
      "type": "function"
    },
    {
      "inputs": [
        {
          "components": [
            {
              "internalType": "address",
              "name": "wallet",
              "type": "address"
            },
            {
              "internalType": "uint8",
              "name": "percent",
              "type": "uint8"
            }
          ],
          "internalType": "struct GameBase.PlayerResult[]",
          "name": "_playerResultList",
          "type": "tuple[]"
        }
      ],
      "name": "finish",
      "outputs": [],
      "stateMutability": "payable",
      "type": "function"
    },
    {
      "inputs": [],
      "name": "getAllPlayers",
      "outputs": [
        {
          "internalType": "string[]",
          "name": "names",
          "type": "string[]"
        },
        {
          "internalType": "address[]",
          "name": "wallets",
          "type": "address[]"
        },
        {
          "internalType": "uint256[]",
          "name": "bets",
          "type": "uint256[]"
        },
        {
          "internalType": "bool[]",
          "name": "isPaid",
          "type": "bool[]"
        },
        {
          "internalType": "bool[]",
          "name": "isPaidOut",
          "type": "bool[]"
        },
        {
          "internalType": "uint256[]",
          "name": "results",
          "type": "uint256[]"
        }
      ],
      "stateMutability": "view",
      "type": "function"
    },
    {
      "inputs": [],
      "name": "getContractBalance",
      "outputs": [
        {
          "internalType": "uint256",
          "name": "",
          "type": "uint256"
        }
      ],
      "stateMutability": "view",
      "type": "function"
    },
    {
      "inputs": [],
      "name": "getGameData",
      "outputs": [
        {
          "internalType": "uint256",
          "name": "bettingMaxTime",
          "type": "uint256"
        },
        {
          "internalType": "uint256",
          "name": "gameMaxTime",
          "type": "uint256"
        },
        {
          "internalType": "uint256",
          "name": "createdAt",
          "type": "uint256"
        },
        {
          "internalType": "uint256",
          "name": "startedAt",
          "type": "uint256"
        },
        {
          "internalType": "uint256",
          "name": "finishedAt",
          "type": "uint256"
        },
        {
          "internalType": "bool",
          "name": "isBettingComplete",
          "type": "bool"
        },
        {
          "internalType": "bool",
          "name": "isGameAborted",
          "type": "bool"
        },
        {
          "internalType": "bool",
          "name": "isGameFinished",
          "type": "bool"
        }
      ],
      "stateMutability": "view",
      "type": "function"
    },
    {
      "inputs": [
        {
          "internalType": "uint256",
          "name": "index",
          "type": "uint256"
        }
      ],
      "name": "getPlayer",
      "outputs": [
        {
          "components": [
            {
              "internalType": "string",
              "name": "name",
              "type": "string"
            },
            {
              "internalType": "address",
              "name": "wallet",
              "type": "address"
            },
            {
              "internalType": "uint256",
              "name": "bet",
              "type": "uint256"
            },
            {
              "internalType": "bool",
              "name": "isPaid",
              "type": "bool"
            },
            {
              "internalType": "bool",
              "name": "isPaidOut",
              "type": "bool"
            },
            {
              "internalType": "uint256",
              "name": "result",
              "type": "uint256"
            }
          ],
          "internalType": "struct GameBase.Player",
          "name": "",
          "type": "tuple"
        }
      ],
      "stateMutability": "view",
      "type": "function"
    },
    {
      "inputs": [],
      "name": "withdrawRemainingBalance",
      "outputs": [],
      "stateMutability": "nonpayable",
      "type": "function"
    },
    {
      "stateMutability": "payable",
      "type": "receive"
    }
  ],
  "bytecode": "0x60806040526000600660006101000a81548160ff0219169083151502179055506000600660016101000a81548160ff0219169083151502179055506000600660026101000a81548160ff02191690831515021790555034801561006157600080fd5b50604051613d25380380613d258339818101604052810190610083919061097d565b6100958484848461009e60201b60201c565b50505050610f6b565b60008451116100e2576040517f08c379a00000000000000000000000000000000000000000000000000000000081526004016100d990610a5d565b60405180910390fd5b600073ffffffffffffffffffffffffffffffffffffffff168373ffffffffffffffffffffffffffffffffffffffff1603610151576040517f08c379a000000000000000000000000000000000000000000000000000000000815260040161014890610ac9565b60405180910390fd5b60008211610194576040517f08c379a000000000000000000000000000000000000000000000000000000000815260040161018b90610b5b565b60405180910390fd5b600081116101d7576040517f08c379a00000000000000000000000000000000000000000000000000000000081526004016101ce90610bc7565b60405180910390fd5b336000806101000a81548173ffffffffffffffffffffffffffffffffffffffff021916908373ffffffffffffffffffffffffffffffffffffffff1602179055504260038190555082600a60006101000a81548173ffffffffffffffffffffffffffffffffffffffff021916908373ffffffffffffffffffffffffffffffffffffffff160217905550816001819055508060028190555060005b845181101561058957600960008683815181106102905761028f610be7565b5b60200260200101516020015173ffffffffffffffffffffffffffffffffffffffff1673ffffffffffffffffffffffffffffffffffffffff16815260200190815260200160002060009054906101000a900460ff1615610324576040517f08c379a000000000000000000000000000000000000000000000000000000000815260040161031b90610c62565b60405180910390fd5b60076040518060c0016040528087848151811061034457610343610be7565b5b602002602001015160000151815260200187848151811061036857610367610be7565b5b60200260200101516020015173ffffffffffffffffffffffffffffffffffffffff1681526020018784815181106103a2576103a1610be7565b5b60200260200101516040015181526020016000151581526020016000151581526020016000815250908060018154018082558091505060019003906000526020600020906005020160009091909190915060008201518160000190816104089190610e99565b5060208201518160010160006101000a81548173ffffffffffffffffffffffffffffffffffffffff021916908373ffffffffffffffffffffffffffffffffffffffff1602179055506040820151816002015560608201518160030160006101000a81548160ff02191690831515021790555060808201518160030160016101000a81548160ff02191690831515021790555060a08201518160040155505080600860008784815181106104be576104bd610be7565b5b60200260200101516020015173ffffffffffffffffffffffffffffffffffffffff1673ffffffffffffffffffffffffffffffffffffffff1681526020019081526020016000208190555060016009600087848151811061052157610520610be7565b5b60200260200101516020015173ffffffffffffffffffffffffffffffffffffffff1673ffffffffffffffffffffffffffffffffffffffff16815260200190815260200160002060006101000a81548160ff021916908315150217905550806001019050610270565b5050505050565b6000604051905090565b600080fd5b600080fd5b600080fd5b6000601f19601f8301169050919050565b7f4e487b7100000000000000000000000000000000000000000000000000000000600052604160045260246000fd5b6105f2826105a9565b810181811067ffffffffffffffff82111715610611576106106105ba565b5b80604052505050565b6000610624610590565b905061063082826105e9565b919050565b600067ffffffffffffffff8211156106505761064f6105ba565b5b602082029050602081019050919050565b600080fd5b600080fd5b600080fd5b600080fd5b600067ffffffffffffffff8211156106905761068f6105ba565b5b610699826105a9565b9050602081019050919050565b60005b838110156106c45780820151818401526020810190506106a9565b60008484015250505050565b60006106e36106de84610675565b61061a565b9050828152602081018484840111156106ff576106fe610670565b5b61070a8482856106a6565b509392505050565b600082601f830112610727576107266105a4565b5b81516107378482602086016106d0565b91505092915050565b600073ffffffffffffffffffffffffffffffffffffffff82169050919050565b600061076b82610740565b9050919050565b61077b81610760565b811461078657600080fd5b50565b60008151905061079881610772565b92915050565b6000819050919050565b6107b18161079e565b81146107bc57600080fd5b50565b6000815190506107ce816107a8565b92915050565b60008115159050919050565b6107e9816107d4565b81146107f457600080fd5b50565b600081519050610806816107e0565b92915050565b600060c0828403121561082257610821610666565b5b61082c60c061061a565b9050600082015167ffffffffffffffff81111561084c5761084b61066b565b5b61085884828501610712565b600083015250602061086c84828501610789565b6020830152506040610880848285016107bf565b6040830152506060610894848285016107f7565b60608301525060806108a8848285016107f7565b60808301525060a06108bc848285016107bf565b60a08301525092915050565b60006108db6108d684610635565b61061a565b905080838252602082019050602084028301858111156108fe576108fd610661565b5b835b8181101561094557805167ffffffffffffffff811115610923576109226105a4565b5b808601610930898261080c565b85526020850194505050602081019050610900565b5050509392505050565b600082601f830112610964576109636105a4565b5b81516109748482602086016108c8565b91505092915050565b600080600080608085870312156109975761099661059a565b5b600085015167ffffffffffffffff8111156109b5576109b461059f565b5b6109c18782880161094f565b94505060206109d287828801610789565b93505060406109e3878288016107bf565b92505060606109f4878288016107bf565b91505092959194509250565b600082825260208201905092915050565b7f506c61796572206c6973742063616e6e6f7420626520656d7074790000000000600082015250565b6000610a47601b83610a00565b9150610a5282610a11565b602082019050919050565b60006020820190508181036000830152610a7681610a3a565b9050919050565b7f496e76616c6964206c6f67696320636f6e747261637420616464726573730000600082015250565b6000610ab3601e83610a00565b9150610abe82610a7d565b602082019050919050565b60006020820190508181036000830152610ae281610aa6565b9050919050565b7f42657474696e672074696d65206d75737420626520677265617465722074686160008201527f6e20300000000000000000000000000000000000000000000000000000000000602082015250565b6000610b45602383610a00565b9150610b5082610ae9565b604082019050919050565b60006020820190508181036000830152610b7481610b38565b9050919050565b7f47616d652074696d65206d7573742062652067726561746572207468616e2030600082015250565b6000610bb1602083610a00565b9150610bbc82610b7b565b602082019050919050565b60006020820190508181036000830152610be081610ba4565b9050919050565b7f4e487b7100000000000000000000000000000000000000000000000000000000600052603260045260246000fd5b7f506c6179657220616c7265616479206578697374730000000000000000000000600082015250565b6000610c4c601583610a00565b9150610c5782610c16565b602082019050919050565b60006020820190508181036000830152610c7b81610c3f565b9050919050565b600081519050919050565b7f4e487b7100000000000000000000000000000000000000000000000000000000600052602260045260246000fd5b60006002820490506001821680610cd457607f821691505b602082108103610ce757610ce6610c8d565b5b50919050565b60008190508160005260206000209050919050565b60006020601f8301049050919050565b600082821b905092915050565b600060088302610d4f7fffffffffffffffffffffffffffffffffffffffffffffffffffffffffffffffff82610d12565b610d598683610d12565b95508019841693508086168417925050509392505050565b6000819050919050565b6000610d96610d91610d8c8461079e565b610d71565b61079e565b9050919050565b6000819050919050565b610db083610d7b565b610dc4610dbc82610d9d565b848454610d1f565b825550505050565b600090565b610dd9610dcc565b610de4818484610da7565b505050565b5b81811015610e0857610dfd600082610dd1565b600181019050610dea565b5050565b601f821115610e4d57610e1e81610ced565b610e2784610d02565b81016020851015610e36578190505b610e4a610e4285610d02565b830182610de9565b50505b505050565b600082821c905092915050565b6000610e7060001984600802610e52565b1980831691505092915050565b6000610e898383610e5f565b9150826002028217905092915050565b610ea282610c82565b67ffffffffffffffff811115610ebb57610eba6105ba565b5b610ec58254610cbc565b610ed0828285610e0c565b600060209050601f831160018114610f035760008415610ef1578287015190505b610efb8582610e7d565b865550610f63565b601f198416610f1186610ced565b60005b82811015610f3957848901518255600182019150602085019450602081019050610f14565b86831015610f565784890151610f52601f891682610e5f565b8355505b6001600288020188555050505b505050505050565b612dab80610f7a6000396000f3fe6080604052600436106100745760003560e01c8063af4e99de1161004e578063af4e99de146100e6578063b91d53c614610118578063e55ae4e81461012f578063efa1c4821461016c57610083565b806307784022146100885780636f9fb98a146100a457806390506f20146100cf57610083565b366100835761008161019c565b005b600080fd5b6100a2600480360381019061009d9190611c52565b6104ec565b005b3480156100b057600080fd5b506100b96104f8565b6040516100c69190611cb4565b60405180910390f35b3480156100db57600080fd5b506100e4610507565b005b3480156100f257600080fd5b506100fb610511565b60405161010f989796959493929190611cea565b60405180910390f35b34801561012457600080fd5b5061012d61053f565b005b34801561013b57600080fd5b5061015660048036038101906101519190611d94565b610549565b6040516101639190611ef6565b60405180910390f35b34801561017857600080fd5b50610181610561565b604051610193969594939291906121e7565b60405180910390f35b600660029054906101000a900460ff16156101ec576040517f08c379a00000000000000000000000000000000000000000000000000000000081526004016101e3906122cf565b60405180910390fd5b600660019054906101000a900460ff161561023c576040517f08c379a00000000000000000000000000000000000000000000000000000000081526004016102339061233b565b60405180910390fd5b600660009054906101000a900460ff161561028c576040517f08c379a0000000000000000000000000000000000000000000000000000000008152600401610283906123a7565b60405180910390fd5b60015460035461029c91906123f6565b4211156102de576040517f08c379a00000000000000000000000000000000000000000000000000000000081526004016102d590612476565b60405180910390fd5b600960003373ffffffffffffffffffffffffffffffffffffffff1673ffffffffffffffffffffffffffffffffffffffff16815260200190815260200160002060009054906101000a900460ff1661036a576040517f08c379a0000000000000000000000000000000000000000000000000000000008152600401610361906124e2565b60405180910390fd5b6000600860003373ffffffffffffffffffffffffffffffffffffffff1673ffffffffffffffffffffffffffffffffffffffff1681526020019081526020016000205490506000600782815481106103c4576103c3612502565b5b906000526020600020906005020190508060030160009054906101000a900460ff1615610426576040517f08c379a000000000000000000000000000000000000000000000000000000000815260040161041d9061257d565b60405180910390fd5b8060020154341461046c576040517f08c379a0000000000000000000000000000000000000000000000000000000008152600401610463906125e9565b60405180910390fd5b60018160030160006101000a81548160ff021916908315150217905550610491610586565b3373ffffffffffffffffffffffffffffffffffffffff167f19e6e409bcd6fbaad3b5921f8957e014f2c5aa12d3495c01f7590a6ed80561fe8260000183600201546040516104e0929190612702565b60405180910390a25050565b6104f5816106e8565b50565b6000610502610eb4565b905090565b61050f610ebc565b565b6000806000806000806000806105256111f7565b975097509750975097509750975097509091929394959697565b61054761125c565b565b6105516119a9565b61055a826113ca565b9050919050565b606080606080606080610572611538565b955095509550955095509550909192939495565b600073ffffffffffffffffffffffffffffffffffffffff16600a60009054906101000a900473ffffffffffffffffffffffffffffffffffffffff1673ffffffffffffffffffffffffffffffffffffffff1603610617576040517f08c379a000000000000000000000000000000000000000000000000000000000815260040161060e9061277e565b60405180910390fd5b600060019050600660009054906101000a900460ff166106e55760005b60078054905081101561068e576007818154811061065557610654612502565b5b906000526020600020906005020160030160009054906101000a900460ff16610681576000915061068e565b8080600101915050610634565b5080156106e4576001600660006101000a81548160ff021916908315150217905550426004819055507f780fcd6f670bec2e3c1a567dfc85156e0a2a05927c566f714abbddb8ba7f1e5660405160405180910390a15b5b50565b600073ffffffffffffffffffffffffffffffffffffffff16600a60009054906101000a900473ffffffffffffffffffffffffffffffffffffffff1673ffffffffffffffffffffffffffffffffffffffff1603610779576040517f08c379a00000000000000000000000000000000000000000000000000000000081526004016107709061277e565b60405180910390fd5b60008054906101000a900473ffffffffffffffffffffffffffffffffffffffff1673ffffffffffffffffffffffffffffffffffffffff163373ffffffffffffffffffffffffffffffffffffffff1614610807576040517f08c379a00000000000000000000000000000000000000000000000000000000081526004016107fe90612810565b60405180910390fd5b600660029054906101000a900460ff1615610857576040517f08c379a000000000000000000000000000000000000000000000000000000000815260040161084e906122cf565b60405180910390fd5b600660009054906101000a900460ff166108a6576040517f08c379a000000000000000000000000000000000000000000000000000000000815260040161089d9061287c565b60405180910390fd5b600660019054906101000a900460ff16156108f6576040517f08c379a00000000000000000000000000000000000000000000000000000000081526004016108ed9061233b565b60405180910390fd5b60025460045461090691906123f6565b421115610948576040517f08c379a000000000000000000000000000000000000000000000000000000000815260040161093f906128e8565b60405180910390fd5b60004790506000825167ffffffffffffffff81111561096a57610969611a23565b5b6040519080825280602002602001820160405280156109985781602001602082028036833780820191505090505b5090506000835167ffffffffffffffff8111156109b8576109b7611a23565b5b6040519080825280602002602001820160405280156109e65781602001602082028036833780820191505090505b50905060005b8451811015610ab457848181518110610a0857610a07612502565b5b602002602001015160000151838281518110610a2757610a26612502565b5b602002602001019073ffffffffffffffffffffffffffffffffffffffff16908173ffffffffffffffffffffffffffffffffffffffff1681525050848181518110610a7457610a73612502565b5b602002602001015160200151828281518110610a9357610a92612502565b5b602002602001019060ff16908160ff168152505080806001019150506109ec565b50600080600a60009054906101000a900473ffffffffffffffffffffffffffffffffffffffff1673ffffffffffffffffffffffffffffffffffffffff16858585604051602401610b06939291906129c6565b6040516020818303038152906040527f1b5ac7e5000000000000000000000000000000000000000000000000000000007bffffffffffffffffffffffffffffffffffffffffffffffffffffffff19166020820180517bffffffffffffffffffffffffffffffffffffffffffffffffffffffff8381831617835250505050604051610b909190612a52565b600060405180830381855af49150503d8060008114610bcb576040519150601f19603f3d011682016040523d82523d6000602084013e610bd0565b606091505b509150915081610c15576040517f08c379a0000000000000000000000000000000000000000000000000000000008152600401610c0c90612ab5565b60405180910390fd5b600081806020019051810190610c2b9190612bad565b905060005b8751811015610dea576000868281518110610c4e57610c4d612502565b5b602002602001015190506000838381518110610c6d57610c6c612502565b5b602002602001015190506000811115610ddb5760008273ffffffffffffffffffffffffffffffffffffffff1682604051610ca690612c1c565b60006040518083038185875af1925050503d8060008114610ce3576040519150601f19603f3d011682016040523d82523d6000602084013e610ce8565b606091505b5050905080610d2c576040517f08c379a0000000000000000000000000000000000000000000000000000000008152600401610d2390612c7d565b60405180910390fd5b6000600860008573ffffffffffffffffffffffffffffffffffffffff1673ffffffffffffffffffffffffffffffffffffffff1681526020019081526020016000205490508260078281548110610d8557610d84612502565b5b906000526020600020906005020160040181905550600160078281548110610db057610daf612502565b5b906000526020600020906005020160030160016101000a81548160ff02191690831515021790555050505b50508080600101915050610c30565b5060008054906101000a900473ffffffffffffffffffffffffffffffffffffffff1673ffffffffffffffffffffffffffffffffffffffff166108fc479081150290604051600060405180830381858888f19350505050158015610e51573d6000803e3d6000fd5b506001600660026101000a81548160ff021916908315150217905550426005819055507f821e8f282903f17bca18208015c4de756a7bbcd272fce239c6701cf1f9aed62042604051610ea39190611cb4565b60405180910390a150505050505050565b600047905090565b60008054906101000a900473ffffffffffffffffffffffffffffffffffffffff1673ffffffffffffffffffffffffffffffffffffffff163373ffffffffffffffffffffffffffffffffffffffff1614610f4a576040517f08c379a0000000000000000000000000000000000000000000000000000000008152600401610f4190612810565b60405180910390fd5b600660029054906101000a900460ff1615610f9a576040517f08c379a0000000000000000000000000000000000000000000000000000000008152600401610f91906122cf565b60405180910390fd5b600660019054906101000a900460ff1615610fea576040517f08c379a0000000000000000000000000000000000000000000000000000000008152600401610fe19061233b565b60405180910390fd5b6001600660016101000a81548160ff02191690831515021790555060005b6007805490508110156111ec576007818154811061102957611028612502565b5b906000526020600020906005020160030160009054906101000a900460ff16801561108457506007818154811061106357611062612502565b5b906000526020600020906005020160030160019054906101000a900460ff16155b156111df5760006007828154811061109f5761109e612502565b5b906000526020600020906005020160010160009054906101000a900473ffffffffffffffffffffffffffffffffffffffff1673ffffffffffffffffffffffffffffffffffffffff16600783815481106110fb576110fa612502565b5b90600052602060002090600502016002015460405161111990612c1c565b60006040518083038185875af1925050503d8060008114611156576040519150601f19603f3d011682016040523d82523d6000602084013e61115b565b606091505b505090508061119f576040517f08c379a000000000000000000000000000000000000000000000000000000000815260040161119690612ce9565b60405180910390fd5b6001600783815481106111b5576111b4612502565b5b906000526020600020906005020160030160016101000a81548160ff021916908315150217905550505b8080600101915050611008565b506111f561125c565b565b600080600080600080600080600154600254600354600454600554600660009054906101000a900460ff16600660019054906101000a900460ff16600660029054906101000a900460ff16975097509750975097509750975097509091929394959697565b60008054906101000a900473ffffffffffffffffffffffffffffffffffffffff1673ffffffffffffffffffffffffffffffffffffffff163373ffffffffffffffffffffffffffffffffffffffff16146112ea576040517f08c379a00000000000000000000000000000000000000000000000000000000081526004016112e190612810565b60405180910390fd5b600047905060008111156113c75760008060009054906101000a900473ffffffffffffffffffffffffffffffffffffffff1673ffffffffffffffffffffffffffffffffffffffff168260405161133f90612c1c565b60006040518083038185875af1925050503d806000811461137c576040519150601f19603f3d011682016040523d82523d6000602084013e611381565b606091505b50509050806113c5576040517f08c379a00000000000000000000000000000000000000000000000000000000081526004016113bc90612d55565b60405180910390fd5b505b50565b6113d26119a9565b600782815481106113e6576113e5612502565b5b90600052602060002090600502016040518060c001604052908160008201805461140f90612638565b80601f016020809104026020016040519081016040528092919081815260200182805461143b90612638565b80156114885780601f1061145d57610100808354040283529160200191611488565b820191906000526020600020905b81548152906001019060200180831161146b57829003601f168201915b505050505081526020016001820160009054906101000a900473ffffffffffffffffffffffffffffffffffffffff1673ffffffffffffffffffffffffffffffffffffffff1673ffffffffffffffffffffffffffffffffffffffff168152602001600282015481526020016003820160009054906101000a900460ff161515151581526020016003820160019054906101000a900460ff161515151581526020016004820154815250509050919050565b606080606080606080600060078054905090508067ffffffffffffffff81111561156557611564611a23565b5b60405190808252806020026020018201604052801561159857816020015b60608152602001906001900390816115835790505b5096508067ffffffffffffffff8111156115b5576115b4611a23565b5b6040519080825280602002602001820160405280156115e35781602001602082028036833780820191505090505b5095508067ffffffffffffffff811115611600576115ff611a23565b5b60405190808252806020026020018201604052801561162e5781602001602082028036833780820191505090505b5094508067ffffffffffffffff81111561164b5761164a611a23565b5b6040519080825280602002602001820160405280156116795781602001602082028036833780820191505090505b5093508067ffffffffffffffff81111561169657611695611a23565b5b6040519080825280602002602001820160405280156116c45781602001602082028036833780820191505090505b5092508067ffffffffffffffff8111156116e1576116e0611a23565b5b60405190808252806020026020018201604052801561170f5781602001602082028036833780820191505090505b50915060005b8181101561199f5760006007828154811061173357611732612502565b5b90600052602060002090600502016040518060c001604052908160008201805461175c90612638565b80601f016020809104026020016040519081016040528092919081815260200182805461178890612638565b80156117d55780601f106117aa576101008083540402835291602001916117d5565b820191906000526020600020905b8154815290600101906020018083116117b857829003601f168201915b505050505081526020016001820160009054906101000a900473ffffffffffffffffffffffffffffffffffffffff1673ffffffffffffffffffffffffffffffffffffffff1673ffffffffffffffffffffffffffffffffffffffff168152602001600282015481526020016003820160009054906101000a900460ff161515151581526020016003820160019054906101000a900460ff161515151581526020016004820154815250509050806000015189838151811061189857611897612502565b5b602002602001018190525080602001518883815181106118bb576118ba612502565b5b602002602001019073ffffffffffffffffffffffffffffffffffffffff16908173ffffffffffffffffffffffffffffffffffffffff1681525050806040015187838151811061190d5761190c612502565b5b602002602001018181525050806060015186838151811061193157611930612502565b5b602002602001019015159081151581525050806080015185838151811061195b5761195a612502565b5b6020026020010190151590811515815250508060a0015184838151811061198557611984612502565b5b602002602001018181525050508080600101915050611715565b5050909192939495565b6040518060c0016040528060608152602001600073ffffffffffffffffffffffffffffffffffffffff16815260200160008152602001600015158152602001600015158152602001600081525090565b6000604051905090565b600080fd5b600080fd5b600080fd5b6000601f19601f8301169050919050565b7f4e487b7100000000000000000000000000000000000000000000000000000000600052604160045260246000fd5b611a5b82611a12565b810181811067ffffffffffffffff82111715611a7a57611a79611a23565b5b80604052505050565b6000611a8d6119f9565b9050611a998282611a52565b919050565b600067ffffffffffffffff821115611ab957611ab8611a23565b5b602082029050602081019050919050565b600080fd5b600080fd5b600073ffffffffffffffffffffffffffffffffffffffff82169050919050565b6000611aff82611ad4565b9050919050565b611b0f81611af4565b8114611b1a57600080fd5b50565b600081359050611b2c81611b06565b92915050565b600060ff82169050919050565b611b4881611b32565b8114611b5357600080fd5b50565b600081359050611b6581611b3f565b92915050565b600060408284031215611b8157611b80611acf565b5b611b8b6040611a83565b90506000611b9b84828501611b1d565b6000830152506020611baf84828501611b56565b60208301525092915050565b6000611bce611bc984611a9e565b611a83565b90508083825260208201905060408402830185811115611bf157611bf0611aca565b5b835b81811015611c1a5780611c068882611b6b565b845260208401935050604081019050611bf3565b5050509392505050565b600082601f830112611c3957611c38611a0d565b5b8135611c49848260208601611bbb565b91505092915050565b600060208284031215611c6857611c67611a03565b5b600082013567ffffffffffffffff811115611c8657611c85611a08565b5b611c9284828501611c24565b91505092915050565b6000819050919050565b611cae81611c9b565b82525050565b6000602082019050611cc96000830184611ca5565b92915050565b60008115159050919050565b611ce481611ccf565b82525050565b600061010082019050611d00600083018b611ca5565b611d0d602083018a611ca5565b611d1a6040830189611ca5565b611d276060830188611ca5565b611d346080830187611ca5565b611d4160a0830186611cdb565b611d4e60c0830185611cdb565b611d5b60e0830184611cdb565b9998505050505050505050565b611d7181611c9b565b8114611d7c57600080fd5b50565b600081359050611d8e81611d68565b92915050565b600060208284031215611daa57611da9611a03565b5b6000611db884828501611d7f565b91505092915050565b600081519050919050565b600082825260208201905092915050565b60005b83811015611dfb578082015181840152602081019050611de0565b60008484015250505050565b6000611e1282611dc1565b611e1c8185611dcc565b9350611e2c818560208601611ddd565b611e3581611a12565b840191505092915050565b611e4981611af4565b82525050565b611e5881611c9b565b82525050565b611e6781611ccf565b82525050565b600060c0830160008301518482036000860152611e8a8282611e07565b9150506020830151611e9f6020860182611e40565b506040830151611eb26040860182611e4f565b506060830151611ec56060860182611e5e565b506080830151611ed86080860182611e5e565b5060a0830151611eeb60a0860182611e4f565b508091505092915050565b60006020820190508181036000830152611f108184611e6d565b905092915050565b600081519050919050565b600082825260208201905092915050565b6000819050602082019050919050565b6000611f508383611e07565b905092915050565b6000602082019050919050565b6000611f7082611f18565b611f7a8185611f23565b935083602082028501611f8c85611f34565b8060005b85811015611fc85784840389528151611fa98582611f44565b9450611fb483611f58565b925060208a01995050600181019050611f90565b50829750879550505050505092915050565b600081519050919050565b600082825260208201905092915050565b6000819050602082019050919050565b60006120128383611e40565b60208301905092915050565b6000602082019050919050565b600061203682611fda565b6120408185611fe5565b935061204b83611ff6565b8060005b8381101561207c5781516120638882612006565b975061206e8361201e565b92505060018101905061204f565b5085935050505092915050565b600081519050919050565b600082825260208201905092915050565b6000819050602082019050919050565b60006120c18383611e4f565b60208301905092915050565b6000602082019050919050565b60006120e582612089565b6120ef8185612094565b93506120fa836120a5565b8060005b8381101561212b57815161211288826120b5565b975061211d836120cd565b9250506001810190506120fe565b5085935050505092915050565b600081519050919050565b600082825260208201905092915050565b6000819050602082019050919050565b60006121708383611e5e565b60208301905092915050565b6000602082019050919050565b600061219482612138565b61219e8185612143565b93506121a983612154565b8060005b838110156121da5781516121c18882612164565b97506121cc8361217c565b9250506001810190506121ad565b5085935050505092915050565b600060c08201905081810360008301526122018189611f65565b90508181036020830152612215818861202b565b9050818103604083015261222981876120da565b9050818103606083015261223d8186612189565b905081810360808301526122518185612189565b905081810360a083015261226581846120da565b9050979650505050505050565b600082825260208201905092915050565b7f47616d6520697320616c72656164792066696e69736865640000000000000000600082015250565b60006122b9601883612272565b91506122c482612283565b602082019050919050565b600060208201905081810360008301526122e8816122ac565b9050919050565b7f47616d652069732061626f727465640000000000000000000000000000000000600082015250565b6000612325600f83612272565b9150612330826122ef565b602082019050919050565b6000602082019050818103600083015261235481612318565b9050919050565b7f42657474696e6720616c726561647920636f6d706c6574656400000000000000600082015250565b6000612391601983612272565b915061239c8261235b565b602082019050919050565b600060208201905081810360008301526123c081612384565b9050919050565b7f4e487b7100000000000000000000000000000000000000000000000000000000600052601160045260246000fd5b600061240182611c9b565b915061240c83611c9b565b9250828201905080821115612424576124236123c7565b5b92915050565b7f42657474696e672074696d65206973206f766572000000000000000000000000600082015250565b6000612460601483612272565b915061246b8261242a565b602082019050919050565b6000602082019050818103600083015261248f81612453565b9050919050565b7f506c6179657220646f6573206e6f742065786973740000000000000000000000600082015250565b60006124cc601583612272565b91506124d782612496565b602082019050919050565b600060208201905081810360008301526124fb816124bf565b9050919050565b7f4e487b7100000000000000000000000000000000000000000000000000000000600052603260045260246000fd5b7f506c617965722068617320616c72656164792070616964000000000000000000600082015250565b6000612567601783612272565b915061257282612531565b602082019050919050565b600060208201905081810360008301526125968161255a565b9050919050565b7f496e636f72726563742062657420616d6f756e74000000000000000000000000600082015250565b60006125d3601483612272565b91506125de8261259d565b602082019050919050565b60006020820190508181036000830152612602816125c6565b9050919050565b7f4e487b7100000000000000000000000000000000000000000000000000000000600052602260045260246000fd5b6000600282049050600182168061265057607f821691505b60208210810361266357612662612609565b5b50919050565b60008190508160005260206000209050919050565b6000815461268b81612638565b6126958186612272565b945060018216600081146126b057600181146126c6576126f9565b60ff1983168652811515602002860193506126f9565b6126cf85612669565b60005b838110156126f1578154818901526001820191506020810190506126d2565b808801955050505b50505092915050565b6000604082019050818103600083015261271c818561267e565b905061272b6020830184611ca5565b9392505050565b7f496e76616c6964206c6f67696320636f6e747261637420616464726573730000600082015250565b6000612768601e83612272565b915061277382612732565b602082019050919050565b600060208201905081810360008301526127978161275b565b9050919050565b7f4f6e6c7920746865206f776e65722063616e2063616c6c20746869732066756e60008201527f6374696f6e000000000000000000000000000000000000000000000000000000602082015250565b60006127fa602583612272565b91506128058261279e565b604082019050919050565b60006020820190508181036000830152612829816127ed565b9050919050565b7f42657474696e67206e6f7420636f6d706c657465642079657400000000000000600082015250565b6000612866601983612272565b915061287182612830565b602082019050919050565b6000602082019050818103600083015261289581612859565b9050919050565b7f47616d652074696d652065786365656465640000000000000000000000000000600082015250565b60006128d2601283612272565b91506128dd8261289c565b602082019050919050565b60006020820190508181036000830152612901816128c5565b9050919050565b600081519050919050565b600082825260208201905092915050565b6000819050602082019050919050565b61293d81611b32565b82525050565b600061294f8383612934565b60208301905092915050565b6000602082019050919050565b600061297382612908565b61297d8185612913565b935061298883612924565b8060005b838110156129b95781516129a08882612943565b97506129ab8361295b565b92505060018101905061298c565b5085935050505092915050565b60006060820190506129db6000830186611ca5565b81810360208301526129ed818561202b565b90508181036040830152612a018184612968565b9050949350505050565b600081519050919050565b600081905092915050565b6000612a2c82612a0b565b612a368185612a16565b9350612a46818560208601611ddd565b80840191505092915050565b6000612a5e8284612a21565b915081905092915050565b7f44656c656761746563616c6c206661696c656400000000000000000000000000600082015250565b6000612a9f601383612272565b9150612aaa82612a69565b602082019050919050565b60006020820190508181036000830152612ace81612a92565b9050919050565b600067ffffffffffffffff821115612af057612aef611a23565b5b602082029050602081019050919050565b600081519050612b1081611d68565b92915050565b6000612b29612b2484612ad5565b611a83565b90508083825260208201905060208402830185811115612b4c57612b4b611aca565b5b835b81811015612b755780612b618882612b01565b845260208401935050602081019050612b4e565b5050509392505050565b600082601f830112612b9457612b93611a0d565b5b8151612ba4848260208601612b16565b91505092915050565b600060208284031215612bc357612bc2611a03565b5b600082015167ffffffffffffffff811115612be157612be0611a08565b5b612bed84828501612b7f565b91505092915050565b50565b6000612c06600083612a16565b9150612c1182612bf6565b600082019050919050565b6000612c2782612bf9565b9150819050919050565b7f5061796d656e74206661696c6564000000000000000000000000000000000000600082015250565b6000612c67600e83612272565b9150612c7282612c31565b602082019050919050565b60006020820190508181036000830152612c9681612c5a565b9050919050565b7f526566756e64206661696c656400000000000000000000000000000000000000600082015250565b6000612cd3600d83612272565b9150612cde82612c9d565b602082019050919050565b60006020820190508181036000830152612d0281612cc6565b9050919050565b7f5472616e73666572206661696c65640000000000000000000000000000000000600082015250565b6000612d3f600f83612272565b9150612d4a82612d09565b602082019050919050565b60006020820190508181036000830152612d6e81612d32565b905091905056fea2646970667358221220035cc927aad8965c9b9d20f9657c47d38cff690f58a14ee16f6c30ec79d7929564736f6c634300081c0033",
  "linkReferences": {},
  "deployedLinkReferences": {}
}