{
  "_format": "hh-sol-artifact-1",
  "contractName": "GameLogic",
  "sourceName": "contracts/GameLogic.sol",
  "abi": [
    {
      "inputs": [
        {
          "internalType": "uint256",
          "name": "balance",
          "type": "uint256"
        },
        {
          "internalType": "address[]",
          "name": "wallets",
          "type": "address[]"
        },
        {
          "internalType": "uint8[]",
          "name": "percents",
          "type": "uint8[]"
        },
        {
          "internalType": "uint8",
          "name": "ownerFeePercent",
          "type": "uint8"
        }
      ],
      "name": "calculatePayouts",
      "outputs": [
        {
          "internalType": "uint256[]",
          "name": "",
          "type": "uint256[]"
        }
      ],
      "stateMutability": "pure",
      "type": "function"
    }
  ],
  "bytecode": "0x6080604052348015600f57600080fd5b50610a218061001f6000396000f3fe608060405234801561001057600080fd5b506004361061002b5760003560e01c8063a760722814610030575b600080fd5b61004a600480360381019061004591906105af565b610060565b604051610057919061070c565b60405180910390f35b606082518451146100a6576040517f08c379a000000000000000000000000000000000000000000000000000000000815260040161009d9061078b565b60405180910390fd5b6000805b845181101561017457600073ffffffffffffffffffffffffffffffffffffffff168682815181106100de576100dd6107ab565b5b602002602001015173ffffffffffffffffffffffffffffffffffffffff160361013c576040517f08c379a000000000000000000000000000000000000000000000000000000000815260040161013390610826565b60405180910390fd5b84818151811061014f5761014e6107ab565b5b602002602001015160ff16826101659190610875565b915080806001019150506100aa565b50606481146101b8576040517f08c379a00000000000000000000000000000000000000000000000000000000081526004016101af906108f5565b60405180910390fd5b600060648460ff16886101cb9190610915565b6101d59190610986565b9050600081886101e591906109b7565b90506000875167ffffffffffffffff81111561020457610203610312565b5b6040519080825280602002602001820160405280156102325781602001602082028036833780820191505090505b50905060005b88518110156102a2576064888281518110610256576102556107ab565b5b602002602001015160ff168461026c9190610915565b6102769190610986565b828281518110610289576102886107ab565b5b6020026020010181815250508080600101915050610238565b5080945050505050949350505050565b6000604051905090565b600080fd5b600080fd5b6000819050919050565b6102d9816102c6565b81146102e457600080fd5b50565b6000813590506102f6816102d0565b92915050565b600080fd5b6000601f19601f8301169050919050565b7f4e487b7100000000000000000000000000000000000000000000000000000000600052604160045260246000fd5b61034a82610301565b810181811067ffffffffffffffff8211171561036957610368610312565b5b80604052505050565b600061037c6102b2565b90506103888282610341565b919050565b600067ffffffffffffffff8211156103a8576103a7610312565b5b602082029050602081019050919050565b600080fd5b600073ffffffffffffffffffffffffffffffffffffffff82169050919050565b60006103e9826103be565b9050919050565b6103f9816103de565b811461040457600080fd5b50565b600081359050610416816103f0565b92915050565b600061042f61042a8461038d565b610372565b90508083825260208201905060208402830185811115610452576104516103b9565b5b835b8181101561047b57806104678882610407565b845260208401935050602081019050610454565b5050509392505050565b600082601f83011261049a576104996102fc565b5b81356104aa84826020860161041c565b91505092915050565b600067ffffffffffffffff8211156104ce576104cd610312565b5b602082029050602081019050919050565b600060ff82169050919050565b6104f5816104df565b811461050057600080fd5b50565b600081359050610512816104ec565b92915050565b600061052b610526846104b3565b610372565b9050808382526020820190506020840283018581111561054e5761054d6103b9565b5b835b8181101561057757806105638882610503565b845260208401935050602081019050610550565b5050509392505050565b600082601f830112610596576105956102fc565b5b81356105a6848260208601610518565b91505092915050565b600080600080608085870312156105c9576105c86102bc565b5b60006105d7878288016102e7565b945050602085013567ffffffffffffffff8111156105f8576105f76102c1565b5b61060487828801610485565b935050604085013567ffffffffffffffff811115610625576106246102c1565b5b61063187828801610581565b925050606061064287828801610503565b91505092959194509250565b600081519050919050565b600082825260208201905092915050565b6000819050602082019050919050565b610683816102c6565b82525050565b6000610695838361067a565b60208301905092915050565b6000602082019050919050565b60006106b98261064e565b6106c38185610659565b93506106ce8361066a565b8060005b838110156106ff5781516106e68882610689565b97506106f1836106a1565b9250506001810190506106d2565b5085935050505092915050565b6000602082019050818103600083015261072681846106ae565b905092915050565b600082825260208201905092915050565b7f4c656e67746873206d69736d6174636800000000000000000000000000000000600082015250565b600061077560108361072e565b91506107808261073f565b602082019050919050565b600060208201905081810360008301526107a481610768565b9050919050565b7f4e487b7100000000000000000000000000000000000000000000000000000000600052603260045260246000fd5b7f496e76616c696420706c61796572206164647265737300000000000000000000600082015250565b600061081060168361072e565b915061081b826107da565b602082019050919050565b6000602082019050818103600083015261083f81610803565b9050919050565b7f4e487b7100000000000000000000000000000000000000000000000000000000600052601160045260246000fd5b6000610880826102c6565b915061088b836102c6565b92508282019050808211156108a3576108a2610846565b5b92915050565b7f546f74616c2070657263656e74206d7573742062652031303000000000000000600082015250565b60006108df60198361072e565b91506108ea826108a9565b602082019050919050565b6000602082019050818103600083015261090e816108d2565b9050919050565b6000610920826102c6565b915061092b836102c6565b9250828202610939816102c6565b915082820484148315176109505761094f610846565b5b5092915050565b7f4e487b7100000000000000000000000000000000000000000000000000000000600052601260045260246000fd5b6000610991826102c6565b915061099c836102c6565b9250826109ac576109ab610957565b5b828204905092915050565b60006109c2826102c6565b91506109cd836102c6565b92508282039050818111156109e5576109e4610846565b5b9291505056fea26469706673582212203490f0b54b9a243fc6b41c76a55f1071551e58b5b04562cc55e8c95401cd48ea64736f6c634300081c0033",
  "linkReferences": {},
  "deployedLinkReferences": {}
}